:1010000018FBE220C210A9018D40DFA9078D13DF74
:10101000A93E8D12DFA9088D13DFA90F8D12DFA95C
:10102000078D11DFA93E8D10DFA9088D11DFA90FF3
:101030008D10DFA201008EB710A207008EB510A997
:1010400000A2B910224EE000AEB510206A10AEB773
:1010500010208110209810AEB710E88EB710AEB5F2
:1010600010CA8EB510D0D84C3310A9008D13DFBD37
:10107000A5108D12DFA9018D13DFBDAD108D12DF1C
:1010800060A9008D11DFBDA5108D10DFA9018D11A4
:10109000DFBDAD108D10DF60A05F00A20010CAD0D0
:1010A000FD88D0F76000E907274B5E89B900000191
:0E10B000010101010100000000546F6E650097
:00000001FF
